{
  "_format": "hh-sol-artifact-1",
  "contractName": "PremiumsAccount",
  "sourceName": "contracts/PremiumsAccount.sol",
  "abi": [
    {
      "inputs": [
        {
          "internalType": "contract IPolicyPool",
          "name": "policyPool_",
          "type": "address"
        },
        {
          "internalType": "contract IEToken",
          "name": "juniorEtk_",
          "type": "address"
        },
        {
          "internalType": "contract IEToken",
          "name": "seniorEtk_",
          "type": "address"
        }
      ],
      "stateMutability": "nonpayable",
      "type": "constructor"
    },
    {
      "anonymous": false,
      "inputs": [
        {
          "indexed": false,
          "internalType": "address",
          "name": "previousAdmin",
          "type": "address"
        },
        {
          "indexed": false,
          "internalType": "address",
          "name": "newAdmin",
          "type": "address"
        }
      ],
      "name": "AdminChanged",
      "type": "event"
    },
    {
      "anonymous": false,
      "inputs": [
        {
          "indexed": true,
          "internalType": "address",
          "name": "beacon",
          "type": "address"
        }
      ],
      "name": "BeaconUpgraded",
      "type": "event"
    },
    {
      "anonymous": false,
      "inputs": [
        {
          "indexed": true,
          "internalType": "enum IAccessManager.GovernanceActions",
          "name": "action",
          "type": "uint8"
        },
        {
          "indexed": false,
          "internalType": "address",
          "name": "value",
          "type": "address"
        }
      ],
      "name": "ComponentChanged",
      "type": "event"
    },
    {
      "anonymous": false,
      "inputs": [
        {
          "indexed": true,
          "internalType": "enum IAccessManager.GovernanceActions",
          "name": "action",
          "type": "uint8"
        },
        {
          "indexed": false,
          "internalType": "uint256",
          "name": "value",
          "type": "uint256"
        }
      ],
      "name": "GovernanceAction",
      "type": "event"
    },
    {
      "anonymous": false,
      "inputs": [
        {
          "indexed": false,
          "internalType": "uint8",
          "name": "version",
          "type": "uint8"
        }
      ],
      "name": "Initialized",
      "type": "event"
    },
    {
      "anonymous": false,
      "inputs": [
        {
          "indexed": false,
          "internalType": "address",
          "name": "account",
          "type": "address"
        }
      ],
      "name": "Paused",
      "type": "event"
    },
    {
      "anonymous": false,
      "inputs": [
        {
          "indexed": false,
          "internalType": "address",
          "name": "account",
          "type": "address"
        }
      ],
      "name": "Unpaused",
      "type": "event"
    },
    {
      "anonymous": false,
      "inputs": [
        {
          "indexed": true,
          "internalType": "address",
          "name": "implementation",
          "type": "address"
        }
      ],
      "name": "Upgraded",
      "type": "event"
    },
    {
      "anonymous": false,
      "inputs": [
        {
          "indexed": false,
          "internalType": "bool",
          "name": "moneyIn",
          "type": "bool"
        },
        {
          "indexed": false,
          "internalType": "uint256",
          "name": "value",
          "type": "uint256"
        }
      ],
      "name": "WonPremiumsInOut",
      "type": "event"
    },
    {
      "inputs": [],
      "name": "GUARDIAN_ROLE",
      "outputs": [
        {
          "internalType": "bytes32",
          "name": "",
          "type": "bytes32"
        }
      ],
      "stateMutability": "view",
      "type": "function"
    },
    {
      "inputs": [],
      "name": "LEVEL1_ROLE",
      "outputs": [
        {
          "internalType": "bytes32",
          "name": "",
          "type": "bytes32"
        }
      ],
      "stateMutability": "view",
      "type": "function"
    },
    {
      "inputs": [],
      "name": "LEVEL2_ROLE",
      "outputs": [
        {
          "internalType": "bytes32",
          "name": "",
          "type": "bytes32"
        }
      ],
      "stateMutability": "view",
      "type": "function"
    },
    {
      "inputs": [],
      "name": "LEVEL3_ROLE",
      "outputs": [
        {
          "internalType": "bytes32",
          "name": "",
          "type": "bytes32"
        }
      ],
      "stateMutability": "view",
      "type": "function"
    },
    {
      "inputs": [],
      "name": "TWEAK_EXPIRATION",
      "outputs": [
        {
          "internalType": "uint40",
          "name": "",
          "type": "uint40"
        }
      ],
      "stateMutability": "view",
      "type": "function"
    },
    {
      "inputs": [],
      "name": "WITHDRAW_WON_PREMIUMS_ROLE",
      "outputs": [
        {
          "internalType": "bytes32",
          "name": "",
          "type": "bytes32"
        }
      ],
      "stateMutability": "view",
      "type": "function"
    },
    {
      "inputs": [],
      "name": "activePurePremiums",
      "outputs": [
        {
          "internalType": "uint256",
          "name": "",
          "type": "uint256"
        }
      ],
      "stateMutability": "view",
      "type": "function"
    },
    {
      "inputs": [],
      "name": "assetManager",
      "outputs": [
        {
          "internalType": "contract IAssetManager",
          "name": "",
          "type": "address"
        }
      ],
      "stateMutability": "view",
      "type": "function"
    },
    {
      "inputs": [],
      "name": "borrowedActivePP",
      "outputs": [
        {
          "internalType": "uint256",
          "name": "",
          "type": "uint256"
        }
      ],
      "stateMutability": "view",
      "type": "function"
    },
    {
      "inputs": [],
      "name": "checkpoint",
      "outputs": [],
      "stateMutability": "nonpayable",
      "type": "function"
    },
    {
      "inputs": [],
      "name": "currency",
      "outputs": [
        {
          "internalType": "contract IERC20Metadata",
          "name": "",
          "type": "address"
        }
      ],
      "stateMutability": "view",
      "type": "function"
    },
    {
      "inputs": [],
      "name": "deficitRatio",
      "outputs": [
        {
          "internalType": "uint256",
          "name": "",
          "type": "uint256"
        }
      ],
      "stateMutability": "view",
      "type": "function"
    },
    {
      "inputs": [
        {
          "internalType": "bytes",
          "name": "functionCall",
          "type": "bytes"
        }
      ],
      "name": "forwardToAssetManager",
      "outputs": [
        {
          "internalType": "bytes",
          "name": "",
          "type": "bytes"
        }
      ],
      "stateMutability": "nonpayable",
      "type": "function"
    },
    {
      "inputs": [],
      "name": "initialize",
      "outputs": [],
      "stateMutability": "nonpayable",
      "type": "function"
    },
    {
      "inputs": [],
      "name": "jrLoanLimit",
      "outputs": [
        {
          "internalType": "uint256",
          "name": "",
          "type": "uint256"
        }
      ],
      "stateMutability": "view",
      "type": "function"
    },
    {
      "inputs": [],
      "name": "juniorEtk",
      "outputs": [
        {
          "internalType": "contract IEToken",
          "name": "",
          "type": "address"
        }
      ],
      "stateMutability": "view",
      "type": "function"
    },
    {
      "inputs": [],
      "name": "lastTweak",
      "outputs": [
        {
          "internalType": "uint40",
          "name": "",
          "type": "uint40"
        },
        {
          "internalType": "uint56",
          "name": "",
          "type": "uint56"
        }
      ],
      "stateMutability": "view",
      "type": "function"
    },
    {
      "inputs": [],
      "name": "pause",
      "outputs": [],
      "stateMutability": "nonpayable",
      "type": "function"
    },
    {
      "inputs": [],
      "name": "paused",
      "outputs": [
        {
          "internalType": "bool",
          "name": "",
          "type": "bool"
        }
      ],
      "stateMutability": "view",
      "type": "function"
    },
    {
      "inputs": [
        {
          "components": [
            {
              "internalType": "uint256",
              "name": "id",
              "type": "uint256"
            },
            {
              "internalType": "uint256",
              "name": "payout",
              "type": "uint256"
            },
            {
              "internalType": "uint256",
              "name": "premium",
              "type": "uint256"
            },
            {
              "internalType": "uint256",
              "name": "jrScr",
              "type": "uint256"
            },
            {
              "internalType": "uint256",
              "name": "srScr",
              "type": "uint256"
            },
            {
              "internalType": "uint256",
              "name": "lossProb",
              "type": "uint256"
            },
            {
              "internalType": "uint256",
              "name": "purePremium",
              "type": "uint256"
            },
            {
              "internalType": "uint256",
              "name": "ensuroCommission",
              "type": "uint256"
            },
            {
              "internalType": "uint256",
              "name": "partnerCommission",
              "type": "uint256"
            },
            {
              "internalType": "uint256",
              "name": "jrCoc",
              "type": "uint256"
            },
            {
              "internalType": "uint256",
              "name": "srCoc",
              "type": "uint256"
            },
            {
              "internalType": "contract IRiskModule",
              "name": "riskModule",
              "type": "address"
            },
            {
              "internalType": "uint40",
              "name": "start",
              "type": "uint40"
            },
            {
              "internalType": "uint40",
              "name": "expiration",
              "type": "uint40"
            }
          ],
          "internalType": "struct Policy.PolicyData",
          "name": "policy",
          "type": "tuple"
        }
      ],
      "name": "policyCreated",
      "outputs": [],
      "stateMutability": "nonpayable",
      "type": "function"
    },
    {
      "inputs": [
        {
          "components": [
            {
              "internalType": "uint256",
              "name": "id",
              "type": "uint256"
            },
            {
              "internalType": "uint256",
              "name": "payout",
              "type": "uint256"
            },
            {
              "internalType": "uint256",
              "name": "premium",
              "type": "uint256"
            },
            {
              "internalType": "uint256",
              "name": "jrScr",
              "type": "uint256"
            },
            {
              "internalType": "uint256",
              "name": "srScr",
              "type": "uint256"
            },
            {
              "internalType": "uint256",
              "name": "lossProb",
              "type": "uint256"
            },
            {
              "internalType": "uint256",
              "name": "purePremium",
              "type": "uint256"
            },
            {
              "internalType": "uint256",
              "name": "ensuroCommission",
              "type": "uint256"
            },
            {
              "internalType": "uint256",
              "name": "partnerCommission",
              "type": "uint256"
            },
            {
              "internalType": "uint256",
              "name": "jrCoc",
              "type": "uint256"
            },
            {
              "internalType": "uint256",
              "name": "srCoc",
              "type": "uint256"
            },
            {
              "internalType": "contract IRiskModule",
              "name": "riskModule",
              "type": "address"
            },
            {
              "internalType": "uint40",
              "name": "start",
              "type": "uint40"
            },
            {
              "internalType": "uint40",
              "name": "expiration",
              "type": "uint40"
            }
          ],
          "internalType": "struct Policy.PolicyData",
          "name": "policy",
          "type": "tuple"
        }
      ],
      "name": "policyExpired",
      "outputs": [],
      "stateMutability": "nonpayable",
      "type": "function"
    },
    {
      "inputs": [],
      "name": "policyPool",
      "outputs": [
        {
          "internalType": "contract IPolicyPool",
          "name": "",
          "type": "address"
        }
      ],
      "stateMutability": "view",
      "type": "function"
    },
    {
      "inputs": [
        {
          "internalType": "address",
          "name": "policyHolder",
          "type": "address"
        },
        {
          "components": [
            {
              "internalType": "uint256",
              "name": "id",
              "type": "uint256"
            },
            {
              "internalType": "uint256",
              "name": "payout",
              "type": "uint256"
            },
            {
              "internalType": "uint256",
              "name": "premium",
              "type": "uint256"
            },
            {
              "internalType": "uint256",
              "name": "jrScr",
              "type": "uint256"
            },
            {
              "internalType": "uint256",
              "name": "srScr",
              "type": "uint256"
            },
            {
              "internalType": "uint256",
              "name": "lossProb",
              "type": "uint256"
            },
            {
              "internalType": "uint256",
              "name": "purePremium",
              "type": "uint256"
            },
            {
              "internalType": "uint256",
              "name": "ensuroCommission",
              "type": "uint256"
            },
            {
              "internalType": "uint256",
              "name": "partnerCommission",
              "type": "uint256"
            },
            {
              "internalType": "uint256",
              "name": "jrCoc",
              "type": "uint256"
            },
            {
              "internalType": "uint256",
              "name": "srCoc",
              "type": "uint256"
            },
            {
              "internalType": "contract IRiskModule",
              "name": "riskModule",
              "type": "address"
            },
            {
              "internalType": "uint40",
              "name": "start",
              "type": "uint40"
            },
            {
              "internalType": "uint40",
              "name": "expiration",
              "type": "uint40"
            }
          ],
          "internalType": "struct Policy.PolicyData",
          "name": "policy",
          "type": "tuple"
        },
        {
          "internalType": "uint256",
          "name": "payout",
          "type": "uint256"
        }
      ],
      "name": "policyResolvedWithPayout",
      "outputs": [],
      "stateMutability": "nonpayable",
      "type": "function"
    },
    {
      "inputs": [],
      "name": "proxiableUUID",
      "outputs": [
        {
          "internalType": "bytes32",
          "name": "",
          "type": "bytes32"
        }
      ],
      "stateMutability": "view",
      "type": "function"
    },
    {
      "inputs": [],
      "name": "purePremiums",
      "outputs": [
        {
          "internalType": "uint256",
          "name": "",
          "type": "uint256"
        }
      ],
      "stateMutability": "view",
      "type": "function"
    },
    {
      "inputs": [],
      "name": "rebalance",
      "outputs": [],
      "stateMutability": "nonpayable",
      "type": "function"
    },
    {
      "inputs": [
        {
          "internalType": "uint256",
          "name": "amount",
          "type": "uint256"
        }
      ],
      "name": "receiveGrant",
      "outputs": [],
      "stateMutability": "nonpayable",
      "type": "function"
    },
    {
      "inputs": [],
      "name": "recordEarnings",
      "outputs": [],
      "stateMutability": "nonpayable",
      "type": "function"
    },
    {
      "inputs": [],
      "name": "seniorEtk",
      "outputs": [
        {
          "internalType": "contract IEToken",
          "name": "",
          "type": "address"
        }
      ],
      "stateMutability": "view",
      "type": "function"
    },
    {
      "inputs": [
        {
          "internalType": "contract IAssetManager",
          "name": "newAM",
          "type": "address"
        },
        {
          "internalType": "bool",
          "name": "force",
          "type": "bool"
        }
      ],
      "name": "setAssetManager",
      "outputs": [],
      "stateMutability": "nonpayable",
      "type": "function"
    },
    {
      "inputs": [
        {
          "internalType": "uint256",
          "name": "newRatio",
          "type": "uint256"
        },
        {
          "internalType": "bool",
          "name": "adjustment",
          "type": "bool"
        }
      ],
      "name": "setDeficitRatio",
      "outputs": [],
      "stateMutability": "nonpayable",
      "type": "function"
    },
    {
      "inputs": [
        {
          "internalType": "uint256",
          "name": "newLimitJr",
          "type": "uint256"
        },
        {
          "internalType": "uint256",
          "name": "newLimitSr",
          "type": "uint256"
        }
      ],
      "name": "setLoanLimits",
      "outputs": [],
      "stateMutability": "nonpayable",
      "type": "function"
    },
    {
      "inputs": [],
      "name": "srLoanLimit",
      "outputs": [
        {
          "internalType": "uint256",
          "name": "",
          "type": "uint256"
        }
      ],
      "stateMutability": "view",
      "type": "function"
    },
    {
      "inputs": [
        {
          "internalType": "bytes4",
          "name": "interfaceId",
          "type": "bytes4"
        }
      ],
      "name": "supportsInterface",
      "outputs": [
        {
          "internalType": "bool",
          "name": "",
          "type": "bool"
        }
      ],
      "stateMutability": "view",
      "type": "function"
    },
    {
      "inputs": [],
      "name": "surplus",
      "outputs": [
        {
          "internalType": "int256",
          "name": "",
          "type": "int256"
        }
      ],
      "stateMutability": "view",
      "type": "function"
    },
    {
      "inputs": [],
      "name": "unpause",
      "outputs": [],
      "stateMutability": "nonpayable",
      "type": "function"
    },
    {
      "inputs": [
        {
          "internalType": "address",
          "name": "newImplementation",
          "type": "address"
        }
      ],
      "name": "upgradeTo",
      "outputs": [],
      "stateMutability": "nonpayable",
      "type": "function"
    },
    {
      "inputs": [
        {
          "internalType": "address",
          "name": "newImplementation",
          "type": "address"
        },
        {
          "internalType": "bytes",
          "name": "data",
          "type": "bytes"
        }
      ],
      "name": "upgradeToAndCall",
      "outputs": [],
      "stateMutability": "payable",
      "type": "function"
    },
    {
      "inputs": [
        {
          "internalType": "uint256",
          "name": "amount",
          "type": "uint256"
        },
        {
          "internalType": "address",
          "name": "destination",
          "type": "address"
        }
      ],
      "name": "withdrawWonPremiums",
      "outputs": [
        {
          "internalType": "uint256",
          "name": "",
          "type": "uint256"
        }
      ],
      "stateMutability": "nonpayable",
      "type": "function"
    },
    {
      "inputs": [],
      "name": "wonPurePremiums",
      "outputs": [
        {
          "internalType": "uint256",
          "name": "",
          "type": "uint256"
        }
      ],
      "stateMutability": "view",
      "type": "function"
    }
  ],
  "bytecode": "0x610120604052306080523480156200001657600080fd5b5060405162005222380380620052228339810160408190526200003991620002bb565b82806001600160a01b038116620000bd5760405162461bcd60e51b815260206004820152603660248201527f506f6c696379506f6f6c436f6d706f6e656e743a20706f6c696379506f6f6c2060448201527f63616e6e6f74206265207a65726f20616464726573730000000000000000000060648201526084015b60405180910390fd5b620000c7620001e4565b806001600160a01b031660a0816001600160a01b031681525050506002816001600160a01b031663e5a6b10f6040518163ffffffff1660e01b8152600401602060405180830381865afa15801562000123573d6000803e3d6000fd5b505050506040513d601f19601f820116820180604052508101906200014991906200030f565b6001600160a01b031663313ce5676040518163ffffffff1660e01b8152600401602060405180830381865afa15801562000187573d6000803e3d6000fd5b505050506040513d601f19601f82011682018060405250810190620001ad919062000336565b620001b9919062000371565b620001c690600a620004a1565b60c052506001600160a01b0391821660e052166101005250620004b2565b600054610100900460ff16156200024e5760405162461bcd60e51b815260206004820152602760248201527f496e697469616c697a61626c653a20636f6e747261637420697320696e697469604482015266616c697a696e6760c81b6064820152608401620000b4565b60005460ff90811614620002a0576000805460ff191660ff9081179091556040519081527f7f26b83ff96e1f2b6a682f133852f6798a09c465da95921460cefb38474024989060200160405180910390a15b565b6001600160a01b0381168114620002b857600080fd5b50565b600080600060608486031215620002d157600080fd5b8351620002de81620002a2565b6020850151909350620002f181620002a2565b60408501519092506200030481620002a2565b809150509250925092565b6000602082840312156200032257600080fd5b81516200032f81620002a2565b9392505050565b6000602082840312156200034957600080fd5b815160ff811681146200032f57600080fd5b634e487b7160e01b600052601160045260246000fd5b600060ff8316806200039357634e487b7160e01b600052601260045260246000fd5b8060ff84160491505092915050565b600181815b80851115620003e3578160001904821115620003c757620003c76200035b565b80851615620003d557918102915b93841c9390800290620003a7565b509250929050565b600082620003fc575060016200049b565b816200040b575060006200049b565b81600181146200042457600281146200042f576200044f565b60019150506200049b565b60ff8411156200044357620004436200035b565b50506001821b6200049b565b5060208310610133831016604e8410600b841016171562000474575081810a6200049b565b620004808383620003a2565b80600019048211156200049757620004976200035b565b0290505b92915050565b60006200032f60ff841683620003eb565b60805160a05160c05160e05161010051614bbf620006636000396000818161051301528181611183015281816111b6015281816116440152818161167701528181611aa401528181611ad70152818161203a01528181612570015281816125a301528181612afd01528181612ba60152818161320e015281816136fe015261379a01526000818161049401528181610ea6015281816111df01528181611212015281816116a0015281816116d301528181611b0001528181611b3301528181611f9c015281816125cc015281816125ff015281816127a20152818161284a015281816128db0152818161297501528181612a080152818161314f015281816135c90152613665015260008181612ab801528181612c1801528181612da601526133a00152600081816103db0152818161079101528181610a0201528181610c5b015281816112910152818161138c015281816115ba01528181611791015281816119e901528181611b8c01528181611f27015281816120d3015281816122740152613f3f0152600081816109040152818161094d01528181610b8801528181610bc80152610f0e0152614bbf6000f3fe60806040526004361061023b5760003560e01c80635c975abb1161012e57806397a146c0116100ab578063d80359f11161006f578063d80359f1146106c6578063e3638ea3146106e6578063e5a6b10f14610706578063e823584a1461071b578063f67b2bad1461073057600080fd5b806397a146c0146106315780639d8c5ee714610651578063a0ce58b814610671578063c2c4c5c114610691578063c7a9c70d146106a657600080fd5b80638129fc1c116100f25780638129fc1c1461058e57806381ced71f146105a35780638456cb59146105c35780638ca23bc9146105d857806394217ad11461060c57600080fd5b80635c975abb146104ec5780637b83037b146105045780637bb62319146105375780637d7c2a1c1461054c5780637ed5acfa1461056157600080fd5b80634863c8b0116101bc57806350093f041161018057806350093f041461043b57806352d1902d1461045b578063536c9a4314610470578063536ebbfc146104855780635b494dd5146104b857600080fd5b80634863c8b0146103955780634a47a3e0146103aa5780634d15eb03146103cc5780634eb978a4146104135780634f1ef2861461042857600080fd5b806326ccbd221161020357806326ccbd22146102fa5780632d8f892a1461030f5780633659cfe6146103245780633f4ba83a14610346578063468a8c9f1461035b57600080fd5b806301ffc9a71461024057806313888565146102755780631a548a27146102955780631e9c4658146102ab57806324ea54f4146102d8575b600080fd5b34801561024c57600080fd5b5061026061025b366004614242565b610752565b60405190151581526020015b60405180910390f35b34801561028157600080fd5b5061012e545b60405190815260200161026c565b3480156102a157600080fd5b5061012d54610287565b3480156102b757600080fd5b506102cb6102c6366004614339565b61077e565b60405161026c91906143be565b3480156102e457600080fd5b50610287600080516020614b6a83398151915281565b34801561030657600080fd5b506102876108a7565b34801561031b57600080fd5b506102876108c0565b34801561033057600080fd5b5061034461033f3660046143e6565b6108fa565b005b34801561035257600080fd5b506103446109e2565b34801561036757600080fd5b5060c9546040805164ffffffffff83168152600160281b90920466ffffffffffffff1660208301520161026c565b3480156103a157600080fd5b50610287610af2565b3480156103b657600080fd5b50610287600080516020614b4a83398151915281565b3480156103d857600080fd5b507f00000000000000000000000000000000000000000000000000000000000000005b6040516001600160a01b03909116815260200161026c565b34801561041f57600080fd5b50610344610b0e565b610344610436366004614403565b610b7e565b34801561044757600080fd5b50610344610456366004614461565b610c4a565b34801561046757600080fd5b50610287610f01565b34801561047c57600080fd5b50610287610fb4565b34801561049157600080fd5b507f00000000000000000000000000000000000000000000000000000000000000006103fb565b3480156104c457600080fd5b506102877f5ec196419322369c6bac572d883f4d990ae5ec82f7d93cdf89b85dbb05b63c2781565b3480156104f857600080fd5b5060975460ff16610260565b34801561051057600080fd5b507f00000000000000000000000000000000000000000000000000000000000000006103fb565b34801561054357600080fd5b50610287610fcf565b34801561055857600080fd5b50610344611002565b34801561056d57600080fd5b506105786201518081565b60405164ffffffffff909116815260200161026c565b34801561059a57600080fd5b50610344611051565b3480156105af57600080fd5b506103446105be366004614491565b611161565b3480156105cf57600080fd5b50610344611280565b3480156105e457600080fd5b506102877fa23b11d346b90fc279e0a917152caf41f3c1247b12211b7cbc0e0e3f8b79405781565b34801561061857600080fd5b5061012f546201000090046001600160a01b03166103fb565b34801561063d57600080fd5b5061034461064c3660046144aa565b61137b565b34801561065d57600080fd5b5061034461066c3660046145b8565b6115b7565b34801561067d57600080fd5b5061028761068c3660046145f9565b61176c565b34801561069d57600080fd5b506103446119cc565b3480156106b257600080fd5b506103446106c136600461461e565b6119e6565b3480156106d257600080fd5b506103446106e136600461463b565b611b6c565b3480156106f257600080fd5b5061034461070136600461461e565b611f24565b34801561071257600080fd5b506103fb6120cf565b34801561072757600080fd5b50610287612153565b34801561073c57600080fd5b50610287600080516020614b0383398151915281565b600061075d82612173565b8061077857506001600160e01b03198216632dd9c4bb60e21b145b92915050565b6060600080516020614b4a8339815191527f00000000000000000000000000000000000000000000000000000000000000006001600160a01b03166371907f176040518163ffffffff1660e01b8152600401602060405180830381865afa1580156107ed573d6000803e3d6000fd5b505050506040513d601f19601f820116820180604052508101906108119190614669565b6001600160a01b0316635ff57d2030833360016040518563ffffffff1660e01b81526004016108439493929190614686565b60006040518083038186803b15801561085b57600080fd5b505afa15801561086f573d6000803e3d6000fd5b505050506108a08361089161012f546001600160a01b03620100009091041690565b6001600160a01b0316906121a9565b9392505050565b600061012e5461012d546108bb91906146c6565b905090565b61012f54600090600160b01b900463ffffffff16156108f35761012f546108bb90600160b01b900463ffffffff166121ce565b5060001990565b6001600160a01b037f000000000000000000000000000000000000000000000000000000000000000016300361094b5760405162461bcd60e51b8152600401610942906146ee565b60405180910390fd5b7f00000000000000000000000000000000000000000000000000000000000000006001600160a01b0316610994600080516020614ae3833981519152546001600160a01b031690565b6001600160a01b0316146109ba5760405162461bcd60e51b81526004016109429061473a565b6109c381612254565b604080516000808252602082019092526109df91839190612361565b50565b600080516020614b6a833981519152600080516020614b038339815191527f00000000000000000000000000000000000000000000000000000000000000006001600160a01b03166371907f176040518163ffffffff1660e01b8152600401602060405180830381865afa158015610a5e573d6000803e3d6000fd5b505050506040513d601f19601f82011682018060405250810190610a829190614669565b6001600160a01b0316632b1cff1f3084843360016040518663ffffffff1660e01b8152600401610ab6959493929190614786565b60006040518083038186803b158015610ace57600080fd5b505afa158015610ae2573d6000803e3d6000fd5b50505050610aee6124cc565b5050565b61012f546000906108bb90655af3107a40009061ffff166147b9565b610b1661251e565b6040805160048152602481019091526020810180516001600160e01b03166313ae5e2960e21b179052600090610b609061089161012f546001600160a01b03620100009091041690565b90506109df81806020019051810190610b7991906147d8565b612564565b6001600160a01b037f0000000000000000000000000000000000000000000000000000000000000000163003610bc65760405162461bcd60e51b8152600401610942906146ee565b7f00000000000000000000000000000000000000000000000000000000000000006001600160a01b0316610c0f600080516020614ae3833981519152546001600160a01b031690565b6001600160a01b031614610c355760405162461bcd60e51b81526004016109429061473a565b610c3e82612254565b610aee82826001612361565b600080516020614b4a8339815191527f00000000000000000000000000000000000000000000000000000000000000006001600160a01b03166371907f176040518163ffffffff1660e01b8152600401602060405180830381865afa158015610cb7573d6000803e3d6000fd5b505050506040513d601f19601f82011682018060405250810190610cdb9190614669565b6001600160a01b0316635ff57d2030833360016040518563ffffffff1660e01b8152600401610d0d9493929190614686565b60006040518083038186803b158015610d2557600080fd5b505afa158015610d39573d6000803e3d6000fd5b50505050670de0b6b3a7640000831115610d655760405162461bcd60e51b8152600401610942906147f1565b6000610d7f610d7a655af3107a400086614836565b612688565b905083610d96655af3107a400061ffff84166147b9565b14610df55760405162461bcd60e51b815260206004820152602960248201527f56616c69646174696f6e3a206f6e6c7920757020746f203420646563696d616c6044820152681cc8185b1b1bddd95960ba1b6064820152608401610942565b6000610e00856126ef565b90508380610e1157508061012e5412155b610e6f5760405162461bcd60e51b815260206004820152602960248201527f56616c69646174696f6e3a20737572706c7573206d757374206265203e3d206d604482015268185e1119599a58da5d60ba1b6064820152608401610942565b61012e54602090821315610edb5760008261012e54610e8d90614858565b610e9791906146c6565b61012e8490559050610ed581307f00000000000000000000000000000000000000000000000000000000000000006001600160a01b03161515612709565b60219150505b61012f805461ffff191661ffff8516179055610ef981876000612c9f565b505050505050565b6000306001600160a01b037f00000000000000000000000000000000000000000000000000000000000000001614610fa15760405162461bcd60e51b815260206004820152603860248201527f555550535570677261646561626c653a206d757374206e6f742062652063616c60448201527f6c6564207468726f7567682064656c656761746563616c6c00000000000000006064820152608401610942565b50600080516020614ae383398151915290565b60008061012e541215610fc75750600090565b5061012e5490565b61012f54600090600160d01b900463ffffffff16156108f35761012f546108bb90600160d01b900463ffffffff166121ce565b61100a61251e565b6040805160048152602481019091526020810180516001600160e01b0316631f5f0a8760e21b1790526109df9061089161012f546001600160a01b03620100009091041690565b600054610100900460ff16158080156110715750600054600160ff909116105b8061108b5750303b15801561108b575060005460ff166001145b6110ee5760405162461bcd60e51b815260206004820152602e60248201527f496e697469616c697a61626c653a20636f6e747261637420697320616c72656160448201526d191e481a5b9a5d1a585b1a5e995960921b6064820152608401610942565b6000805460ff191660011790558015611111576000805461ff0019166101001790555b611119612d00565b80156109df576000805461ff0019169055604051600181527f7f26b83ff96e1f2b6a682f133852f6798a09c465da95921460cefb38474024989060200160405180910390a150565b61118033308361116f6120cf565b6001600160a01b0316929190612d37565b807f00000000000000000000000000000000000000000000000000000000000000006001600160a01b0316156111dd576111da817f0000000000000000000000000000000000000000000000000000000000000000612da2565b90505b7f00000000000000000000000000000000000000000000000000000000000000006001600160a01b03161561123957611236817f0000000000000000000000000000000000000000000000000000000000000000612da2565b90505b61124281613058565b6040805160018152602081018490527fd60d524f1cae273480bb0a4ddfb992b6ac0b61c8e12ffbe2e4e31463f9e90199910160405180910390a15050565b600080516020614b6a8339815191527f00000000000000000000000000000000000000000000000000000000000000006001600160a01b03166371907f176040518163ffffffff1660e01b8152600401602060405180830381865afa1580156112ed573d6000803e3d6000fd5b505050506040513d601f19601f820116820180604052508101906113119190614669565b6001600160a01b0316635ff57d2030833360016040518563ffffffff1660e01b81526004016113439493929190614686565b60006040518083038186803b15801561135b57600080fd5b505afa15801561136f573d6000803e3d6000fd5b505050506109df61307e565b600080516020614b4a8339815191527f00000000000000000000000000000000000000000000000000000000000000006001600160a01b03166371907f176040518163ffffffff1660e01b8152600401602060405180830381865afa1580156113e8573d6000803e3d6000fd5b505050506040513d601f19601f8201168201806040525081019061140c9190614669565b6001600160a01b0316635ff57d2030833360016040518563ffffffff1660e01b815260040161143e9493929190614686565b60006040518083038186803b15801561145657600080fd5b505afa15801561146a573d6000803e3d6000fd5b50505050600019831461151057611480836130bb565b61012f805463ffffffff60b01b1916600160b01b63ffffffff9384168102919091179182905585926114b69291909104166121ce565b146115035760405162461bcd60e51b815260206004820152601f60248201527f56616c69646174696f6e3a206e6f20646563696d616c7320616c6c6f776564006044820152606401610942565b6115106022846000612c9f565b60001982146115b257611522826130bb565b61012f805463ffffffff60d01b1916600160d01b63ffffffff9384168102919091179182905584926115589291909104166121ce565b146115a55760405162461bcd60e51b815260206004820152601f60248201527f56616c69646174696f6e3a206e6f20646563696d616c7320616c6c6f776564006044820152606401610942565b6115b26023836000612c9f565b505050565b337f00000000000000000000000000000000000000000000000000000000000000006001600160a01b0316146115ff5760405162461bcd60e51b815260040161094290614874565b61160761251e565b8160c0015161012d600082825461161e91906148b5565b909155505060c0820151811161171c576000818360c0015161164091906148b5565b90507f00000000000000000000000000000000000000000000000000000000000000006001600160a01b03161561169e5761169b817f0000000000000000000000000000000000000000000000000000000000000000612da2565b90505b7f00000000000000000000000000000000000000000000000000000000000000006001600160a01b0316156116fa576116f7817f0000000000000000000000000000000000000000000000000000000000000000612da2565b90505b61170381613058565b61170c83613143565b6117168483613293565b50505050565b60006117368360c001518361173191906148b5565b6133f0565b905061174183613143565b80156117595761175981856000866060015111612709565b6117168461176783856148b5565b613293565b60007fa23b11d346b90fc279e0a917152caf41f3c1247b12211b7cbc0e0e3f8b7940577f00000000000000000000000000000000000000000000000000000000000000006001600160a01b03166371907f176040518163ffffffff1660e01b8152600401602060405180830381865afa1580156117ed573d6000803e3d6000fd5b505050506040513d601f19601f820116820180604052508101906118119190614669565b6001600160a01b0316635ff57d2030833360016040518563ffffffff1660e01b81526004016118439493929190614686565b60006040518083038186803b15801561185b57600080fd5b505afa15801561186f573d6000803e3d6000fd5b5050506001600160a01b03841690506118f05760405162461bcd60e51b815260206004820152603760248201527f5072656d69756d734163636f756e743a2064657374696e6174696f6e2063616e60448201527f6e6f7420626520746865207a65726f20616464726573730000000000000000006064820152608401610942565b600061012e54136119045760009350611914565b6119118461012e54613449565b93505b600084116119645760405162461bcd60e51b815260206004820152601760248201527f4e6f207072656d69756d7320746f2077697468647261770000000000000000006044820152606401610942565b8361012e600082825461197791906148c8565b9091555061198790508385613293565b6040805160008152602081018690527fd60d524f1cae273480bb0a4ddfb992b6ac0b61c8e12ffbe2e4e31463f9e90199910160405180910390a18391505b5092915050565b6119d461251e565b6119dc610b0e565b6119e4611002565b565b337f00000000000000000000000000000000000000000000000000000000000000006001600160a01b031614611a2e5760405162461bcd60e51b815260040161094290614874565b611a3661251e565b60008160c0015190508061012d6000828254611a5291906148b5565b9091555060009050611a6a611a65610af2565b6126ef565b90508061012e541215611aa2578061012e54611a8590614858565b611a8f91906146c6565b611a9990836148b5565b61012e82905591505b7f00000000000000000000000000000000000000000000000000000000000000006001600160a01b031615611afe57611afb827f0000000000000000000000000000000000000000000000000000000000000000612da2565b91505b7f00000000000000000000000000000000000000000000000000000000000000006001600160a01b031615611b5a57611b57827f0000000000000000000000000000000000000000000000000000000000000000612da2565b91505b611b6382613058565b6115b283613143565b600080516020614b6a833981519152600080516020614b038339815191527f00000000000000000000000000000000000000000000000000000000000000006001600160a01b03166371907f176040518163ffffffff1660e01b8152600401602060405180830381865afa158015611be8573d6000803e3d6000fd5b505050506040513d601f19601f82011682018060405250810190611c0c9190614669565b6001600160a01b0316632b1cff1f3084843360016040518663ffffffff1660e01b8152600401611c40959493929190614786565b60006040518083038186803b158015611c5857600080fd5b505afa158015611c6c573d6000803e3d6000fd5b505050506001600160a01b0384161580611cf057506040516301ffc9a760e01b8152631e670a9760e21b60048201526001600160a01b038516906301ffc9a790602401602060405180830381865afa158015611ccc573d6000803e3d6000fd5b505050506040513d601f19601f82011682018060405250810190611cf091906148e8565b611d64576040805162461bcd60e51b81526020600482015260248101919091527f526573657276653a206173736574206d616e6167657220646f65736e2774206960448201527f6d706c656d656e74732074686520726571756972656420696e746572666163656064820152608401610942565b61012f546201000090046001600160a01b031660028115611e94578415611e395760408051600481526024810182526020810180516001600160e01b031663cec16f3f60e01b179052905160009182916001600160a01b03861691611dc891614905565b600060405180830381855af49150503d8060008114611e03576040519150601f19603f3d011682016040523d82523d6000602084013e611e08565b606091505b509150915081611e1b5760039250611e32565b611e3281806020019051810190610b7991906147d8565b5050611e94565b6040805160048152602481019091526020810180516001600160e01b031663cec16f3f60e01b179052600090611e79906001600160a01b038516906121a9565b9050611e9281806020019051810190610b7991906147d8565b505b61012f805462010000600160b01b031916620100006001600160a01b0389160217905561012f546201000090046001600160a01b031691506001600160a01b03821615611f1a576040805160048152602481019091526020810180516001600160e01b031663948cb71960e01b179052611f18906001600160a01b038416906121a9565b505b610ef9818761345f565b337f00000000000000000000000000000000000000000000000000000000000000006001600160a01b031614611f6c5760405162461bcd60e51b815260040161094290614874565b611f7461251e565b8060c0015161012d6000828254611f8b9190614921565b909155505060608101511561202e577f00000000000000000000000000000000000000000000000000000000000000006001600160a01b031663837c83a38260600151611fd7846134b9565b6040516001600160e01b031960e085901b16815260048101929092526024820152604401600060405180830381600087803b15801561201557600080fd5b505af1158015612029573d6000803e3d6000fd5b505050505b6080810151156109df577f00000000000000000000000000000000000000000000000000000000000000006001600160a01b031663837c83a3826080015161207584613505565b6040516001600160e01b031960e085901b168152600481019290925260248201526044015b600060405180830381600087803b1580156120b457600080fd5b505af11580156120c8573d6000803e3d6000fd5b5050505050565b60007f00000000000000000000000000000000000000000000000000000000000000006001600160a01b031663e5a6b10f6040518163ffffffff1660e01b8152600401602060405180830381865afa15801561212f573d6000803e3d6000fd5b505050506040513d601f19601f820116820180604052508101906108bb9190614669565b60008061012e54121561216d5761012e546108bb90614858565b50600090565b60006001600160e01b031982166301ffc9a760e01b148061077857506001600160e01b03198216634d15eb0360e01b1492915050565b60606108a08383604051806060016040528060278152602001614b2360279139613541565b60006121d86120cf565b6001600160a01b031663313ce5676040518163ffffffff1660e01b8152600401602060405180830381865afa158015612215573d6000803e3d6000fd5b505050506040513d601f19601f820116820180604052508101906122399190614934565b61224490600a614a3b565b6107789063ffffffff84166147b9565b600080516020614b6a833981519152600080516020614b038339815191527f00000000000000000000000000000000000000000000000000000000000000006001600160a01b03166371907f176040518163ffffffff1660e01b8152600401602060405180830381865afa1580156122d0573d6000803e3d6000fd5b505050506040513d601f19601f820116820180604052508101906122f49190614669565b6001600160a01b0316632b1cff1f3084843360016040518663ffffffff1660e01b8152600401612328959493929190614786565b60006040518083038186803b15801561234057600080fd5b505afa158015612354573d6000803e3d6000fd5b505050506115b2836135b9565b7f4910fdfa16fed3260ed0e7147f7cc6da11a60208b5b9406d12a635614ffd91435460ff1615612394576115b283613831565b826001600160a01b03166352d1902d6040518163ffffffff1660e01b8152600401602060405180830381865afa9250505080156123ee575060408051601f3d908101601f191682019092526123eb918101906147d8565b60015b6124515760405162461bcd60e51b815260206004820152602e60248201527f45524331393637557067726164653a206e657720696d706c656d656e7461746960448201526d6f6e206973206e6f74205555505360901b6064820152608401610942565b600080516020614ae383398151915281146124c05760405162461bcd60e51b815260206004820152602960248201527f45524331393637557067726164653a20756e737570706f727465642070726f786044820152681a58589b195555525160ba1b6064820152608401610942565b506115b28383836138cd565b6124d46138f2565b6097805460ff191690557f5db9ee0a495bf2e6ff9c91a7834c1ba4fdd244a5e8aa4e537bd38aeae4b073aa335b6040516001600160a01b03909116815260200160405180910390a1565b60975460ff16156119e45760405162461bcd60e51b815260206004820152601060248201526f14185d5cd8589b194e881c185d5cd95960821b6044820152606401610942565b600081131561262f57807f00000000000000000000000000000000000000000000000000000000000000006001600160a01b0316156125ca576125c7817f0000000000000000000000000000000000000000000000000000000000000000612da2565b90505b7f00000000000000000000000000000000000000000000000000000000000000006001600160a01b03161561262657612623817f0000000000000000000000000000000000000000000000000000000000000000612da2565b90505b610aee81613058565b61263b61173182614858565b156109df5760405162461bcd60e51b815260206004820152601e60248201527f4c6f737365732063616e277420657863656564206d61784465666963697400006044820152606401610942565b600061ffff8211156126eb5760405162461bcd60e51b815260206004820152602660248201527f53616665436173743a2076616c756520646f65736e27742066697420696e203160448201526536206269747360d01b6064820152608401610942565b5090565b61012d54600090612700908361393b565b61077890614858565b6001600160a01b03821661277c5760405162461bcd60e51b815260206004820152603460248201527f5072656d69756d734163636f756e743a2072656365697665722063616e6e6f7460448201527320626520746865207a65726f206164647265737360601b6064820152608401610942565b828115612ab65761278b6108c0565b6040516333481fc960e01b815230600482015285907f00000000000000000000000000000000000000000000000000000000000000006001600160a01b0316906333481fc990602401602060405180830381865afa1580156127f1573d6000803e3d6000fd5b505050506040513d601f19601f8201168201806040525081019061281591906147d8565b61281f9190614921565b116128be576040516330f7e76b60e21b8152600481018590526001600160a01b0384811660248301527f0000000000000000000000000000000000000000000000000000000000000000169063c3df9dac906044016020604051808303816000875af1158015612893573d6000803e3d6000fd5b505050506040513d601f19601f820116820180604052508101906128b791906147d8565b9050612ab6565b6128c66108c0565b6040516333481fc960e01b81523060048201527f00000000000000000000000000000000000000000000000000000000000000006001600160a01b0316906333481fc990602401602060405180830381865afa15801561292a573d6000803e3d6000fd5b505050506040513d601f19601f8201168201806040525081019061294e91906147d8565b1015612ab657600061295e6108c0565b6040516333481fc960e01b815230600482015286907f00000000000000000000000000000000000000000000000000000000000000006001600160a01b0316906333481fc990602401602060405180830381865afa1580156129c4573d6000803e3d6000fd5b505050506040513d601f19601f820116820180604052508101906129e891906147d8565b6129f29190614921565b6129fc91906148b5565b90506001600160a01b037f00000000000000000000000000000000000000000000000000000000000000001663c3df9dac612a3783886148b5565b6040516001600160e01b031960e084901b16815260048101919091526001600160a01b03871660248201526044016020604051808303816000875af1158015612a84573d6000803e3d6000fd5b505050506040513d601f19601f82011682018060405250810190612aa891906147d8565b612ab29082614921565b9150505b7f000000000000000000000000000000000000000000000000000000000000000081111561171657612ae6610fcf565b6040516333481fc960e01b815230600482015282907f00000000000000000000000000000000000000000000000000000000000000006001600160a01b0316906333481fc990602401602060405180830381865afa158015612b4c573d6000803e3d6000fd5b505050506040513d601f19601f82011682018060405250810190612b7091906147d8565b612b7a9190614921565b1015612c16576040516330f7e76b60e21b8152600481018290526001600160a01b0384811660248301527f0000000000000000000000000000000000000000000000000000000000000000169063c3df9dac906044016020604051808303816000875af1158015612bef573d6000803e3d6000fd5b505050506040513d601f19601f82011682018060405250810190612c1391906147d8565b90505b7f00000000000000000000000000000000000000000000000000000000000000008111156117165760405162461bcd60e51b815260206004820152603060248201527f446f6e2774206b6e6f7720776865726520746f20736f7572636520746865207260448201526f657374206f6620746865206d6f6e657960801b6064820152608401610942565b612ca7613973565b8015612cb657612cb6836139a8565b82602d811115612cc857612cc8614a4a565b6040518381527f7bc647fe5043209e2019aa3503b79c1b0dd83eb61c56013d373a7584ff6bfb139060200160405180910390a2505050565b600054610100900460ff16612d275760405162461bcd60e51b815260040161094290614a60565b612d2f613b14565b6119e4613b43565b6040516001600160a01b03808516602483015283166044820152606481018290526117169085906323b872dd60e01b906084015b60408051601f198184030181529190526020810180516001600160e01b03166001600160e01b031990931692909217909152613bae565b60007f0000000000000000000000000000000000000000000000000000000000000000831015612dd3575081610778565b6040516333481fc960e01b81523060048201526000906001600160a01b038416906333481fc990602401602060405180830381865afa158015612e1a573d6000803e3d6000fd5b505050506040513d601f19601f82011682018060405250810190612e3e91906147d8565b905080600003612e515783915050610778565b6000612e5d8583613449565b905080612e686120cf565b6040516370a0823160e01b81523060048201526001600160a01b0391909116906370a0823190602401602060405180830381865afa158015612eae573d6000803e3d6000fd5b505050506040513d601f19601f82011682018060405250810190612ed291906147d8565b1015612ee357612ee181613c83565b505b80612eec6120cf565b604051636eb1769f60e11b81523060048201526001600160a01b038781166024830152919091169063dd62ed3e90604401602060405180830381865afa158015612f3a573d6000803e3d6000fd5b505050506040513d601f19601f82011682018060405250810190612f5e91906147d8565b1015612fe357612f6c6120cf565b60405163095ea7b360e01b81526001600160a01b03868116600483015260248201859052919091169063095ea7b3906044016020604051808303816000875af1158015612fbd573d6000803e3d6000fd5b505050506040513d601f19601f82011682018060405250810190612fe191906148e8565b505b60405163918344d360e01b8152600481018290523060248201526001600160a01b0385169063918344d390604401600060405180830381600087803b15801561302b57600080fd5b505af115801561303f573d6000803e3d6000fd5b50505050808561304f91906148b5565b95945050505050565b806000036130635750565b8061012e600082825461307691906146c6565b909155505050565b61308661251e565b6097805460ff191660011790557f62e78cea01bee320cd4e420270b5ea74000d11b0c9f74754ebdbfc544b05a2586125013390565b60006107786130c86120cf565b6001600160a01b031663313ce5676040518163ffffffff1660e01b8152600401602060405180830381865afa158015613105573d6000803e3d6000fd5b505050506040513d601f19601f820116820180604052508101906131299190614934565b61313490600a614a3b565b61313e9084614836565b613d60565b606081015115613202577f00000000000000000000000000000000000000000000000000000000000000006001600160a01b031663b1081ccf826060015161318a846134b9565b61319385613dc5565b8561012001516131a391906148c8565b6040516001600160e01b031960e086901b168152600481019390935260248301919091526044820152606401600060405180830381600087803b1580156131e957600080fd5b505af11580156131fd573d6000803e3d6000fd5b505050505b6080810151156109df577f00000000000000000000000000000000000000000000000000000000000000006001600160a01b031663b1081ccf826080015161324984613505565b61325285613e16565b85610140015161326291906148c8565b6040516001600160e01b031960e086901b16815260048101939093526024830191909152604482015260640161209a565b6001600160a01b0382166132f75760405162461bcd60e51b815260206004820152602560248201527f526573657276653a207472616e7366657220746f20746865207a65726f206164604482015264647265737360d81b6064820152608401610942565b80600003613303575050565b600061330d6120cf565b6040516370a0823160e01b81523060048201526001600160a01b0391909116906370a0823190602401602060405180830381865afa158015613353573d6000803e3d6000fd5b505050506040513d601f19601f8201168201806040525081019061337791906147d8565b9050818110156133d35761338a82613c83565b6133949082614921565b9050808211156133d3577f00000000000000000000000000000000000000000000000000000000000000006133c982846148b5565b10156133d3578091505b6115b283836133e06120cf565b6001600160a01b03169190613e5d565b6000808261012e5461340291906148c8565b90506000613411611a65610af2565b9050808212613427575061012e55506000919050565b61012e8190558061343783614858565b61344191906146c6565b949350505050565b600081831061345857816108a0565b5090919050565b613467613973565b81602d81111561347957613479614a4a565b6040516001600160a01b03831681527fb6bdbd44472629fc24a00b6f4ee3348b72c9eff333d0e9c16d78c49da1323c8f9060200160405180910390a25050565b60006107788260600151836101800151846101a001516134d99190614aab565b64ffffffffff166301e133808561012001516134f591906147b9565b6134ff9190614836565b90613e8d565b60006107788260800151836101800151846101a001516135259190614aab565b64ffffffffff166301e133808561014001516134f591906147b9565b6060600080856001600160a01b03168560405161355e9190614905565b600060405180830381855af49150503d8060008114613599576040519150601f19603f3d011682016040523d82523d6000602084013e61359e565b606091505b50915091506135af86838387613ec4565b9695505050505050565b6135c281613f3d565b60008190507f00000000000000000000000000000000000000000000000000000000000000006001600160a01b0316816001600160a01b031663536ebbfc6040518163ffffffff1660e01b8152600401602060405180830381865afa15801561362f573d6000803e3d6000fd5b505050506040513d601f19601f820116820180604052508101906136539190614669565b6001600160a01b0316148061368f57507f00000000000000000000000000000000000000000000000000000000000000006001600160a01b0316155b6136fc5760405162461bcd60e51b815260206004820152603860248201527f43616e27742075706772616465206368616e67696e6720746865204a756e696f604482015277722045544b20756e6c65737320746f206e6f6e2d7a65726f60401b6064820152608401610942565b7f00000000000000000000000000000000000000000000000000000000000000006001600160a01b0316816001600160a01b0316637b83037b6040518163ffffffff1660e01b8152600401602060405180830381865afa158015613764573d6000803e3d6000fd5b505050506040513d601f19601f820116820180604052508101906137889190614669565b6001600160a01b031614806137c457507f00000000000000000000000000000000000000000000000000000000000000006001600160a01b0316155b610aee5760405162461bcd60e51b815260206004820152603860248201527f43616e27742075706772616465206368616e67696e67207468652053656e696f604482015277722045544b20756e6c65737320746f206e6f6e2d7a65726f60401b6064820152608401610942565b6001600160a01b0381163b61389e5760405162461bcd60e51b815260206004820152602d60248201527f455243313936373a206e657720696d706c656d656e746174696f6e206973206e60448201526c1bdd08184818dbdb9d1c9858dd609a1b6064820152608401610942565b600080516020614ae383398151915280546001600160a01b0319166001600160a01b0392909216919091179055565b6138d68361402e565b6000825111806138e35750805b156115b25761171683836121a9565b60975460ff166119e45760405162461bcd60e51b815260206004820152601460248201527314185d5cd8589b194e881b9bdd081c185d5cd95960621b6044820152606401610942565b600081156706f05b59d3b20000198390048411151761395957600080fd5b50670de0b6b3a764000091026706f05b59d3b20000010490565b61012f5461271061ffff9091161180159061398c575060015b6119e45760405162461bcd60e51b8152600401610942906147f1565b6000600182602d8111156139be576139be614a4a565b6139c89190614ac9565b60c954600160ff929092169190911b915062015180906139ef9064ffffffffff1642614aab565b64ffffffffff161115613a315760c9805466ffffffffffffff8316600160281b026bffffffffffffffffffffffff1990911664ffffffffff4216171790555050565b60c954600160281b9004811666ffffffffffffff16600003613a965760c9805464ffffffffff421664ffffffffff1966ffffffffffffff808616600160281b808604929092161702166bffffffffffffffffffffffff19909216919091171790555050565b60405162461bcd60e51b815260206004820152604760248201527f596f7520616c726561647920747765616b6564207468697320706172616d657460448201527f657220726563656e746c792e2057616974206265666f726520747765616b696e606482015266339030b3b0b4b760c91b608482015260a401610942565b600054610100900460ff16613b3b5760405162461bcd60e51b815260040161094290614a60565b6119e461406e565b600054610100900460ff16613b6a5760405162461bcd60e51b815260040161094290614a60565b6040805160808101825261271080825260006020830181905292820183905260609091019190915261012f80546001600160f01b03191690911790556119e4613973565b6000613c03826040518060400160405280602081526020017f5361666545524332303a206c6f772d6c6576656c2063616c6c206661696c6564815250856001600160a01b03166140a59092919063ffffffff16565b9050805160001480613c24575080806020019051810190613c2491906148e8565b6115b25760405162461bcd60e51b815260206004820152602a60248201527f5361666545524332303a204552433230206f7065726174696f6e20646964206e6044820152691bdd081cdd58d8d9595960b21b6064820152608401610942565b600080613ca061012f546001600160a01b03620100009091041690565b90506001600160a01b03811615613d57576000613d41631014a0c260e01b85604051602401613cd191815260200190565b60408051601f19818403018152918152602080830180516001600160e01b03166001600160e01b03199095169490941790935280518082019091526016815275115c9c9bdc881c99599a5b1b1a5b99c81dd85b1b195d60521b928101929092526001600160a01b03851691613541565b90508080602001905181019061344191906147d8565b50600092915050565b600063ffffffff8211156126eb5760405162461bcd60e51b815260206004820152602660248201527f53616665436173743a2076616c756520646f65736e27742066697420696e203360448201526532206269747360d01b6064820152608401610942565b6000816101800151826101a00151613ddd9190614aab565b64ffffffffff1682610180015164ffffffffff1642613dfc91906148b5565b836101200151613e0c91906147b9565b6107789190614836565b6000816101800151826101a00151613e2e9190614aab565b64ffffffffff1682610180015164ffffffffff1642613e4d91906148b5565b836101400151613e0c91906147b9565b6040516001600160a01b0383166024820152604481018290526115b290849063a9059cbb60e01b90606401612d6b565b60008115670de0b6b3a764000060028404190484111715613ead57600080fd5b50670de0b6b3a76400009190910260028204010490565b60608315613f33578251600003613f2c576001600160a01b0385163b613f2c5760405162461bcd60e51b815260206004820152601d60248201527f416464726573733a2063616c6c20746f206e6f6e2d636f6e74726163740000006044820152606401610942565b5081613441565b61344183836140b4565b7f00000000000000000000000000000000000000000000000000000000000000006001600160a01b0316816001600160a01b0316634d15eb036040518163ffffffff1660e01b8152600401602060405180830381865afa158015613fa5573d6000803e3d6000fd5b505050506040513d601f19601f82011682018060405250810190613fc99190614669565b6001600160a01b0316146109df5760405162461bcd60e51b815260206004820152602660248201527f43616e27742075706772616465206368616e67696e672074686520506f6c696360448201526579506f6f6c2160d01b6064820152608401610942565b61403781613831565b6040516001600160a01b038216907fbc7cd75a20ee27fd9adebab32041f755214dbc6bffa90cc0225b39da2e5c2d3b90600090a250565b600054610100900460ff166140955760405162461bcd60e51b815260040161094290614a60565b61409d6140de565b6119e4614105565b60606134418484600085614134565b8151156140c45781518083602001fd5b8060405162461bcd60e51b815260040161094291906143be565b600054610100900460ff166119e45760405162461bcd60e51b815260040161094290614a60565b600054610100900460ff1661412c5760405162461bcd60e51b815260040161094290614a60565b6119e461420f565b6060824710156141955760405162461bcd60e51b815260206004820152602660248201527f416464726573733a20696e73756666696369656e742062616c616e636520666f6044820152651c8818d85b1b60d21b6064820152608401610942565b600080866001600160a01b031685876040516141b19190614905565b60006040518083038185875af1925050503d80600081146141ee576040519150601f19603f3d011682016040523d82523d6000602084013e6141f3565b606091505b509150915061420487838387613ec4565b979650505050505050565b600054610100900460ff166142365760405162461bcd60e51b815260040161094290614a60565b6097805460ff19169055565b60006020828403121561425457600080fd5b81356001600160e01b0319811681146108a057600080fd5b634e487b7160e01b600052604160045260246000fd5b6040516101c0810167ffffffffffffffff811182821017156142a6576142a661426c565b60405290565b600082601f8301126142bd57600080fd5b813567ffffffffffffffff808211156142d8576142d861426c565b604051601f8301601f19908116603f011681019082821181831017156143005761430061426c565b8160405283815286602085880101111561431957600080fd5b836020870160208301376000602085830101528094505050505092915050565b60006020828403121561434b57600080fd5b813567ffffffffffffffff81111561436257600080fd5b613441848285016142ac565b60005b83811015614389578181015183820152602001614371565b50506000910152565b600081518084526143aa81602086016020860161436e565b601f01601f19169290920160200192915050565b6020815260006108a06020830184614392565b6001600160a01b03811681146109df57600080fd5b6000602082840312156143f857600080fd5b81356108a0816143d1565b6000806040838503121561441657600080fd5b8235614421816143d1565b9150602083013567ffffffffffffffff81111561443d57600080fd5b614449858286016142ac565b9150509250929050565b80151581146109df57600080fd5b6000806040838503121561447457600080fd5b82359150602083013561448681614453565b809150509250929050565b6000602082840312156144a357600080fd5b5035919050565b600080604083850312156144bd57600080fd5b50508035926020909101359150565b80356144d7816143d1565b919050565b803564ffffffffff811681146144d757600080fd5b60006101c0828403121561450457600080fd5b61450c614282565b9050813581526020820135602082015260408201356040820152606082013560608201526080820135608082015260a082013560a082015260c082013560c082015260e082013560e082015261010080830135818301525061012080830135818301525061014080830135818301525061016061458a8184016144cc565b9082015261018061459c8382016144dc565b908201526101a06145ae8382016144dc565b9082015292915050565b600080600061020084860312156145ce57600080fd5b83356145d9816143d1565b92506145e885602086016144f1565b91506101e084013590509250925092565b6000806040838503121561460c57600080fd5b823591506020830135614486816143d1565b60006101c0828403121561463157600080fd5b6108a083836144f1565b6000806040838503121561464e57600080fd5b8235614659816143d1565b9150602083013561448681614453565b60006020828403121561467b57600080fd5b81516108a0816143d1565b6001600160a01b039485168152602081019390935292166040820152901515606082015260800190565b634e487b7160e01b600052601160045260246000fd5b80820182811260008312801582168215821617156146e6576146e66146b0565b505092915050565b6020808252602c908201527f46756e6374696f6e206d7573742062652063616c6c6564207468726f7567682060408201526b19195b1959d85d1958d85b1b60a21b606082015260800190565b6020808252602c908201527f46756e6374696f6e206d7573742062652063616c6c6564207468726f7567682060408201526b6163746976652070726f787960a01b606082015260800190565b6001600160a01b039586168152602081019490945260408401929092529092166060820152901515608082015260a00190565b60008160001904831182151516156147d3576147d36146b0565b500290565b6000602082840312156147ea57600080fd5b5051919050565b60208082526025908201527f56616c69646174696f6e3a2064656669636974526174696f206d757374206265604082015264203c3d203160d81b606082015260800190565b60008261485357634e487b7160e01b600052601260045260246000fd5b500490565b6000600160ff1b820161486d5761486d6146b0565b5060000390565b60208082526021908201527f5468652063616c6c6572206d7573742062652074686520506f6c696379506f6f6040820152601b60fa1b606082015260800190565b81810381811115610778576107786146b0565b81810360008312801583831316838312821617156119c5576119c56146b0565b6000602082840312156148fa57600080fd5b81516108a081614453565b6000825161491781846020870161436e565b9190910192915050565b80820180821115610778576107786146b0565b60006020828403121561494657600080fd5b815160ff811681146108a057600080fd5b600181815b80851115614992578160001904821115614978576149786146b0565b8085161561498557918102915b93841c939080029061495c565b509250929050565b6000826149a957506001610778565b816149b657506000610778565b81600181146149cc57600281146149d6576149f2565b6001915050610778565b60ff8411156149e7576149e76146b0565b50506001821b610778565b5060208310610133831016604e8410600b8410161715614a15575081810a610778565b614a1f8383614957565b8060001904821115614a3357614a336146b0565b029392505050565b60006108a060ff84168361499a565b634e487b7160e01b600052602160045260246000fd5b6020808252602b908201527f496e697469616c697a61626c653a20636f6e7472616374206973206e6f74206960408201526a6e697469616c697a696e6760a81b606082015260800190565b64ffffffffff8281168282160390808211156119c5576119c56146b0565b60ff8281168282160390811115610778576107786146b056fe360894a13ba1a3210667c828492db98dca3e2076cc3735a920a3ca505d382bbcbf372ca3ebecfe59ac256f17697941bbe63302aced610e8b0e3646f743c7beb2416464726573733a206c6f772d6c6576656c2064656c65676174652063616c6c206661696c6564a82e22387fca439f316d78ca566f383218ab8ae1b3e830178c9c82cbd16749c055435dd261a4b9b3364963f7738a7a662ad9c84396d64be3365284bb7f0a5041a2646970667358221220f087206ea97fdfaac24f1cb06d464cb5c3d92f74e3b6588e2ddb7a65404d210864736f6c63430008100033",
  "linkReferences": {},
  "deployedLinkReferences": {}
}